:020000040800F2
:10000000100D00203D010008851700081D11000893
:1000100000000000000000000000000000000000E0
:10002000000000000000000000000000151800089B
:100030000000000000000000FB000008BD190008DF
:100040004F010008000000004F0100084F010008A8
:100050004F0100084F0100084F0100084F01000840
:10006000000000004F0100084F0100084F01000888
:100070004F0100084F0100084F0100080000000078
:100080004F01000800000000000000004F010008C0
:10009000000000004F0100084F0100084F01000858
:1000A000000000004F010008000000004F010008A0
:1000B0000348854600F082F800480047D51A00083A
:1000C000100D0020084B19680868203080F309885B
:1000D000022080F31488BFF36F8F3FBCAE4608BC8C
:1000E00004BC62B618470000A0000020EFF31080A7
:1000F00072B6704780F310887047EFF309800E4B9B
:100100001A6820381060F0C044464D4656465F4697
:10011000F0C008B572B602F02DF862B60CBC1168DA
:1001200008681030F0C8A046A946B246BB4680F326
:1001300009882038F0C81847A000002004488047EC
:1001400004480047FEE7FEE7FEE7FEE7FEE7FEE7BE
:10015000591A0008B100000830B50B4601460020CE
:100160002022012409E00D46D5409D4205D31D46BD
:100170009540491B2546954040191546521E002DB5
:10018000F1DC30BD03460B439B0703D009E008C9EF
:10019000121F08C0042AFAD203E00B780370401C37
:1001A000491C521EF9D2704703460A780270401C5F
:1001B000491C002AF9D1184670470000064C012559
:1001C000064E05E0E36807CC2B430C3C98471034FF
:1001D000B442F7D3FFF770FFD0290008F0290008D8
:1001E000F8B500250446403400952278012A39D01C
:1001F0000122227003689E68760767D4384F4E68E4
:10020000BE424DD09E6A0F78BA4016439E620123CB
:10021000826B1B079A421FD0012A1DD0022A1BD0D5
:10022000032A19D0042A17D0052A15D0062A13D07C
:10023000072A11D002688B6856697607760FB34299
:100240000AD05369DB08DB005361006842690B7A0E
:100250005B075B0F1A4342610A68102A04D0112A17
:1002600002D038E00220F8BD1E488368102A07D06B
:1002700001229205134383600868102803D02AE006
:100280000122D205F6E7194817490068FFF764FF15
:100290000A21484300E0401E00900028FBD11AE0EC
:1002A000986A0E78B240904398620968102901D08C
:1002B000112910D10B488268102904D00121890529
:1002C0008A43826007E00121C905F9E7416C2022D9
:1002D000114341640125002020702846F8BD00002C
:1002E000011000000027014040420F008000002064
:1002F000F8B500250446002803D0606C002802D021
:1003000008E00120F8BD0020A064402108552046E7
:1003100000F0A8F8606C1022C006002870DB20688E
:10032000816849076CD4616C130199430223194316
:10033000616481688907890F012905D10168C907AE
:100340000FD1C16809040CD4C16818239943A3686C
:100350001943C160206801696368890089081943ED
:1003600001612068C1683D4B1940C160A069E16925
:100370008003C9030843216A4B031843636B012BB5
:1003800002D001231B0300E000231843E368184355
:100390002369022B09D000231843236B666A5B0094
:1003A00018430123012E02D00AE00423F4E70029B8
:1003B00027D0616C202631436164A16C1943A1648C
:1003C000A16A0E46FF3EC23E02D0E66A31430843B0
:1003D0002168CE680643CE600126A16B3607B14284
:1003E00013D0012911D002290FD003290DD00429DF
:1003F0000BD0052909D0062907D0072905D010E020
:1004000028E0012109040843DAE721684E69F6086B
:10041000F6004E6121684E69278F7F077F0F3E43AC
:100420004E612168C9680E4E3140814207D10020DB
:10043000A064606C80088000401C606408E0606C10
:100440000221884310436064A06C1843A064012516
:100450002846F8BD606C10436064F8E71902FEFF9F
:10046000E7FF3F8308B500680549884207D1054882
:10047000826941150A43826180690840009008BD85
:10048000002401400010024031B500F0AFF8009C9C
:100490000546601C00D0641C00F0A8F8401BA04278
:1004A000FAD338BDF8B500238DE001249C40A44662
:1004B00022407DD04C68022C01D0122C0CD1DC08DB
:1004C000A40027183C6A5D07ED0E0F26AE40B4432A
:1004D0000E69AE4026433E6205685E000324B440C8
:1004E0000F79A543BF07BF0FB7402F4307604D6883
:1004F000012D05D0022D03D0112D01D0122D0ED1CA
:100500008568CF68A543B7402F4387604768654635
:10051000AF430D79ED06ED0F9D403D434560C56845
:10052000A5438C68B4402C43C4604C68E40049D5B2
:10053000284CA56901263543A561A4699D0834406E
:100540000094254CAD002F19BC689D072E0F0F2578
:10055000B540AC430925ED06A84201D100250FE0C6
:100560001E4DA84201D101250AE01D4DA84201D12E
:10057000022505E01B4DA84201D1032500E0052519
:10058000B5402543BD60184C25684E689543F60379
:1005900000D51543256065684E689543B60300D5C0
:1005A00015436560A5684E689543F60202D500E0E4
:1005B00008E01543A560E5684E689543B60200D58E
:1005C0001543E5605B1C0A681446DC4000D06CE70C
:1005D000F8BD000000100240000001400004004887
:1005E00000080048000C0048000401400148006871
:1005F000704700007C00002070B5024640325378FE
:10060000202B1CD11378012B19D001231370242423
:100610005470046825689D432560046825681E039E
:10062000B5432560046825680D43256000680168AE
:1006300019430160202050700020107070BD02200E
:1006400070BD70B5024640325378202B1BD1137811
:10065000012B18D0012414702423537003681D68E3
:10066000A5431D6005682B680F263602B3430902B7
:1006700019432960006801682143016020205070FF
:100680000020107070BD022070BD000070B5040025
:1006900006D02546403568780026002802D005E0BF
:1006A000012070BD2E70204600F0D6F8242068701E
:1006B000206801684908490001600F216068090647
:1006C00088432168086121688A680120C003824349
:1006D0008A60E1680129A16808D0212292021143B1
:1006E00022689160E168022902D005E00143F7E742
:1006F00001212268C902516021684A680F4B1A43E0
:100700004A602168CA688243CA60616920690843F7
:10071000A169090208432168C860216AE0690843A9
:100720002168086020680168012211430160666445
:10073000202068702663AE70002070BD008000022B
:10074000FFB5054604464035687881B020287ED143
:10075000287801287BD001202870FFF747FF074643
:10076000012200901923D103204600F035FD002816
:100770003FD1212068701020A8700026666403987D
:100780006062049860856663618D01204003FF29E3
:1007900003D9FF222285009034E0618D21850090ED
:1007A00036E02046029900F005FD36E000F05FFDDE
:1007B000002803D0606C042847D01AE0606A411C0E
:1007C0006162017820688162608D401E6085208DA5
:1007D000401E0004000C20851FD1608D00281CD015
:1007E00000970022802120460A9B00F0F5FC00289B
:1007F00002D0032005B0F0BD608DFF2805D9FF228F
:100800002285009601231B06CBE7608D208500968C
:10081000208D0123C2B25B06C3E7608D0A990028D0
:100820003A462046C2D100F0FBFC0028C2D1216824
:100830002020C86121684A68064B1A404A606870E7
:10084000AE702E700020D5E701E00120D2E7022033
:10085000D0E7000000E800FE00B500680F4987B04F
:10086000884218D1032040020090122001900120FC
:100870000290032003900420049009206946C006DA
:10088000FFF710FE0648C269012149050A43C2610B
:10089000C0690840059007B000BD0000005400404A
:1008A0000010024002480168491C016070470000C6
:1008B0007C00002010B50648016810221143016039
:1008C000032000F007F800F017F8002010BD00002A
:1008D0000020024010B5044600F038F97D21C9001F
:1008E000FFF73AFC00F002FC00222146501E00F007
:1008F0001FF8002010BD000008B50C4881690122D6
:100900001143816180691040002200901146501F00
:1009100000F00EF803210022481F00F009F803211F
:100920000022081F00F004F808BD0000001002407B
:1009300010B500F029FF10BDF8B505460068354C2C
:10094000C00352D5E0690026C00007D4E169200445
:100950000143E161E1690140012600912E480168EF
:10096000C90510D40168821511430160FFF73EFEEE
:10097000074604E0FFF73AFEC01B642824D8264847
:100980000068C005F6D5206A03273F02384020D012
:100990006968394081421CD0206A226AB84301212B
:1009A00009040A432262226A8A4322622062C00743
:1009B0000FD0FFF71BFE009008E0FFF717FE00992D
:1009C000411A1648814201D90320F8BD206A8007E8
:1009D000F3D5206A6968B84308432062002E04D02A
:1009E000E169012000078143E1612878C00705D053
:1009F000206BA9688008800008432063287880065F
:100A000005D5206B10218843E96808432063002046
:100A1000F8BD000000100240007000408813000084
:100A2000F8B5054644480E460068C007C00FB042FE
:100A30000AD2414801684908490031430160006811
:100A4000C007C00FB0425CD128783C4C800705D568
:100A50006068F0218843A968084360602878C0076F
:100A60003FD06868012813D02168022813D0890775
:100A7000002946DA61688908890001436160FFF74F
:100A8000B5FD6968074601290DD0022917D024E079
:100A900021688903ECE78901EAE7FFF7A7FDC11B9D
:100AA0002748814217D860680007800F0128F4D1D9
:100AB00017E0FFF79BFDC11B214881420BD86068FE
:100AC0000007800F0228F4D10BE0FFF78FFDC11B58
:100AD0001B48814201D90320F8BD60680007800FE0
:100AE000F3D115480168C907C90FB1420BD9016894
:100AF00049084900314301600068C007C00FB04297
:100B000001D00120F8BD2878400706D5606807218C
:100B100009028843E9680843606000F01DF86168D5
:100B2000084A0906090F515CC840074908600320BC
:100B3000FFF7D0FE0020F8BD002002400010024068
:100B40008813000030290008800000200148006858
:100B5000704700008000002010B513A30FCB88B0B1
:100B60006C460FC414A30FCB0FC417494A680C205E
:100B7000134603401548042B02D0082B02D014481A
:100B800008B010BD93021B0F6C46E45CC96A04AB4D
:100B90000907090F595CD20303D5FFF7DDFA60435B
:100BA000EEE70C486043EBE702030405060708097B
:100BB0000A0B0C0D0E0F10100102030405060708A6
:100BC000090A0B0C0D0E0F1000100240002D310110
:100BD00000127A0000093D00FEB504460078D04DB1
:100BE000C00747D068680007800F012807D06868F1
:100BF0000007800F022809D16868C00306D528685D
:100C0000800337D5606800287ED033E00120626819
:100C10000004012A11D08100002A01D0052A10D039
:100C20002A6882432A602868884328606068002810
:100C300014D0FFF7DBFC06460CE02968014329606D
:100C4000F4E72A680A432A60F7E7FFF7CFFC801B26
:100C500064286FD828688003F7D50BE0FFF7C6FC3F
:100C6000064604E0FFF7C2FC801B6428F1D8286820
:100C70008003F7D420780126800700283BDA6868D3
:100C80000007800F07D068680007800F022809D18D
:100C90006868C00306D42868800715D5E068012875
:100CA00032D111E0E0680028286815D03043286070
:100CB000FFF79CFC074604E0FFF798FCC01B0228E6
:100CC000C7D828688007F7D52868F82188432169A4
:100CD000C900084328600EE0400840002860FFF784
:100CE00085FC074604E0FFF781FCC01B0228B0D852
:100CF00028688007F7D42078000724D5E069002809
:100D0000686A10D0304300E008E16862FFF76EFCCB
:100D1000074604E0FFF76AFCC01B022899D8686AFE
:100D20008007F7D50FE0400840006862FFF75EFCDF
:100D3000074605E09DE0FFF759FCC01B022888D854
:100D4000686A8007F7D4207804274007002860DA13
:100D500000200190E869C00008D4E969B8060143A1
:100D6000E961E96901400120009101906D48016845
:100D7000C90511D40168821511430160FFF736FCE3
:100D8000009005E0FFF732FC0099401A642870D803
:100D900064480068C005F5D5A06801280AD000287D
:100DA00001D0052810D0286A400840002862286A2F
:100DB000B84301E0286A30432862A068002812D0B6
:100DC000FFF714FC00900AE0286A38432862F1E734
:100DD000FFF70CFC0099411A5348814249D8286A10
:100DE0008007F5D50DE0FFF701FC009006E0FFF766
:100DF000FDFB0099411A4C4881423AD8286A800785
:100E0000F5D40198002804D0E96901200007814346
:100E1000E9612078C00635D5606901280CD0401DF5
:100E2000686B23D038436863686B40084000686390
:100E3000FFF7DCFB064622E0686B38436863686BAB
:100E400030436863FFF7D2FB064604E0FFF7CEFBB2
:100E5000801B02285BD8686B8007F7D5686BF82188
:100E60008843A169C900084368630BE0B84368631D
:100E7000F4E74CE0FFF7BAFB801B022847D8686B09
:100E80008007F7D4206A002846D069680907890FCF
:100E9000022943D0012636060228286805D0B0432F
:100EA0002860FFF7A3FB044633E0B0432860FFF758
:100EB0009DFB074604E0FFF799FBC01B022826D8DC
:100EC00028688001F7D4E86AE16A00090001084354
:100ED000E862616AA06A084369683D22120491438E
:100EE00008436860286830432860FFF77FFB0446AA
:100EF00004E0FFF77BFB001B022808D8286880016C
:100F0000F7D509E0FFF772FB001B022801D9032087
:100F1000FEBD28688001F5D40020FEBD0120FEBD85
:100F200000100240007000408813000010B50068F7
:100F30000B464068C021C94301400002000ECC04AA
:100F4000D870E40E5C708C06A40E0904490F9C70E6
:100F50001970002A0AD100F039FCD870587800F0D6
:100F600035FC5870987800F031FC9870002010BD66
:100F700030B50B460168896A5960016809694904FE
:100F8000490C9960006804680F48214601408802B6
:100F90004D04800E18706D0E49065D70490E9970F3
:100FA0006102490E40242140D970002A0AD100F084
:100FB0000DFC1870587800F009FC5870987800F013
:100FC00005FC9870002030BD7F7F7F0070B5040065
:100FD00003D0607F002802D006E0012070BD002011
:100FE0002077204600F04CF8022060772168CA2064
:100FF0004862216853204862204600F0EFFBFF253D
:101000000426002824D1206881681C4A1140816090
:101010002168886862686369104322691A43104333
:1010200088602168E06808612068016922891204EB
:10103000114301612068C16880229143C16020682A
:101040008068800608D4204600F02AF8002803D0E3
:10105000206845626677C0E72068016C012292042F
:10106000914301642068016CA26911430164206806
:10107000456201206077002070BD0000BFFF8FFF38
:1010800000680549884205D10448016A0122D2035B
:101090001143016270470000002800400010024028
:1010A00070B504460068C168A0229143C160FFF793
:1010B0009DFA7D260546F60006E0FFF797FA401BED
:1010C000B04201D9032070BD2068C0688006F4D505
:1010D000002070BD042204490428086902D090430E
:1010E000086170471043FBE700E000E0094910B5D4
:1010F000401E884201D9012010BD074C60610321C8
:10110000081F00F041FB0020A061072020610020A3
:1011100010BD0000FFFFFF0000E000E0FEE70168F7
:101120008A69D243920701D400228A6200688169E9
:10113000C943C90703D08169012211438161704706
:10114000F7B5044600680E468069C043C0062CD43B
:1011500020272546403520688069C04380060FD58A
:10116000701CF8D0002E05D0FFF740FA0299401A03
:10117000B042F0D96F700020A87028700320FEBD27
:1011800021681020C8612068C7612046FFF7C7FFAB
:1011900020684168064A11404160042060646F7015
:1011A0000020A87028700120FEBD0020FEBD0000B8
:1011B00000E800FE70B50568049C68688905890D23
:1011C0001204044E11431943304021430143696026
:1011D00070BD0000009800FCF8B51C4617460E468E
:1011E000054611E0601C0FD0002C05D0FFF7FEF97A
:1011F0000699401AA04207D9202040356870002087
:10120000A87028700320F8BD28688169304688439B
:1012100004D00020B842E5D00020F8BD0120F9E755
:1012200070B516460D4604461AE032462946204659
:10123000FFF786FF002801D0012070BD002D04D0EB
:10124000FFF7D4F9801BA8420AD9616C2020014322
:101250006164403460700020A0702070032070BD75
:1012600020688069C0438006DFD4002070BD70B55F
:1012700016460D4604461CE0324629462046FFF736
:101280005FFF002801D0012070BD681C11D0002D27
:1012900004D0FFF7ABF9801BA8420AD9616C20206B
:1012A00001436164403460700020A070207003200E
:1012B00070BD20688069C0438007DDD4002070BD08
:1012C000FEB53B4906244A780192D3010A78009280
:1012D00062439A18521C92B24A809646803A20384D
:1012E00096B25F2801D8C0B200E05F2081004018AC
:1012F0003049002540188446042061464A5D022793
:10130000D107C90F4B00C91813463B40062463435D
:101310000B43014611400C24614319430823134039
:1013200018245C430C431109CA07D20F5300D2188A
:101330000B463B4006277B43134302460A400C27DB
:101340007A431A43082319401823594311431A4A70
:101350006D1C9455761CB3B2D4545B1C9EB292198A
:1013600060329177EDB2D177052DC6D3704613491F
:101370000F4C0B30FEF7F0FE0F4A618000205054F6
:10138000CA1FFF3AFA3A10D0491C61800099891CA3
:10139000C9B22170132907D920700199891CC9B2DB
:1013A0006170032900D96070FEBD0121EDE70000E6
:1013B0000000002000270008DC00002001020000DF
:1013C00010B50B4604461146184600F0A1F802E09D
:1013D000FFF776FF641C20780028F9D110BD0000CB
:1013E00070B586B015460C460646142212A1684612
:1013F000FEF7C8FE002C00D1132414481323301824
:1014000069467F2203E0CA545B1EDBB236380028EF
:10141000F9DCE80100190E4B123858800D4C002001
:101420000D5C5A88401CA554521CC0B25A80132827
:10143000F6D306B070BD00001C1C7F414141414104
:10144000414141414141414141417F006EF3FFFF34
:1014500000000020DC000020F0B5184906224F787B
:101460000E78FB0172439A18521C20384A805F287C
:1014700001D8C2B200E05F229300D218104B0020C6
:10148000D418104B255C4A88401C9D54521CC0B295
:101490004A800528F6D3002092B29854521C4A8004
:1014A000761CF2B20A70142A06D97F1CFAB20870B0
:1014B0004A70032A00D94870F0BD000000000020E7
:1014C00000270008DC0000200120064B064A00210E
:1014D0001954401C80B29042FAD304480170417004
:1014E00070470000DC000020010200000000002026
:1014F00010B50B4604461146184600F009F802E004
:10150000FFF7AAFF641C20780028F9D110BD000065
:10151000152804D2042902D2014A10705170704774
:101520000000002008B50A2000901B23024A782101
:101530000248FFF705F908BD04000020540300200D
:1015400008B5212000F022F8002000F01FF87F20CD
:1015500000F01CF8222000F019F8002000F016F826
:10156000032000F013F806494020087032200A4694
:101570000090044B78210448FFF7E2F808BD000012
:10158000DC00002001020000540300201CB50021F3
:101590006A460191117150710A200090022301AA3C
:1015A00078210248FFF7CCF81CBD0000540300204E
:1015B0000EB51E481C490160002141608160012276
:1015C00004230C300EC0016041608160FF23C160C4
:1015D000C23341610361C26181611838FEF788FE40
:1015E000002803D0522112A000F064FA10200090CD
:1015F000000201900004029069460C48FEF7F0FDDD
:10160000002803D05C210AA000F054FA11200090B9
:1016100069460648FEF7E4FD002803D0642104A0D3
:1016200000F048FA0EBD000000240140E002002056
:101630002E2E2F5372632F6164632E63000000000F
:1016400010B590B000200F9001210FA800F06BFAA8
:10165000114C1422A06111496846FEF793FD002148
:10166000684600F075FA0D49E0601422143105A8AF
:10167000FEF788FD002105A800F06AFA07492061FD
:10168000142228310AA8FEF77DFD00210AA800F0E7
:101690005FFA606110B010BD20000020F42800083F
:1016A00008B505484269012149040A43426140697D
:1016B0000840009008BD00000010024010B5194815
:1016C00017490160FF2108314160002181600161FB
:1016D000416181610122C161C2600162FEF7D6FFF2
:1016E000002803D04C2110A000F0E4F900210D489F
:1016F000FEF782FF002803D053210BA000F0DAF997
:1017000000210848FEF79DFF002803D05A2106A0BB
:1017100000F0D0F90848016802011143016010BDD2
:1017200000540040540300202E2E2F5372632F6963
:1017300032632E63000000000000014010B50B482A
:101740000949016015228260002141600161084A57
:101750004161C2608161FFF739FC002803D04A2152
:1017600004A000F0A7F910BD00280040A00300204D
:10177000F20600002E2E2F5372632F7274632E63B5
:1017800000000000704700008307FF22DB0E9A4034
:101790008907090E994000280BDA0007000F083866
:1017A000830808489B001818C36993430B43C3611F
:1017B0007047830804489B001B181868904308432F
:1017C0001860704700ED00E000E400E001090A2223
:1017D00000075143000F4018C0B2704770B504466F
:1017E0000068C168490613D40021C943C160FEF7EF
:1017F000FDFE7D260546F60006E0FEF7F7FE401BDF
:10180000B04201D9032070BD2068C0684006F4D5FD
:10181000002070BD7047000001261C4D37031C4C92
:10182000FFF752FE022211461848FFF7C9FD207843
:10183000002801D07D2100E07E216971A9707040EF
:101840002070134800221146401CFFF751FE0F483C
:10185000002204210930FFF74BFE00227821A06806
:10186000FFF7BEFDA068401CA060B84201D909483E
:10187000A0600748032200214430FFF739FEFFF73C
:101880005FFE142000F042F9CAE700002C0300209C
:1018900020000020920C00002BA12E48FEF784FCB3
:1018A0002C482DA10930FEF77FFC2A4D2D4F2E46E6
:1018B0002D4C09362749012214312C48FFF758FBDB
:1018C000012228492948FFF731FB224814300178CA
:1018D0000A09A25C09072A70090F615C69704178E6
:1018E0000A09A25C0907EA70090F615C2971807816
:1018F0000109615C0007A971000F205CE87138786C
:1019000081001848001D41582338FEF74DFCF87837
:101910000109615C0007B171000F205CF0717878FB
:101920000109615C0007F170000F205C3071B8782C
:101930000109615C00073170000F205C707032207B
:1019400000F0E4F8B6E7000032337D35397D3530FC
:10195000000000002C03002030312D30312D3138B3
:101960000000000040000020E0280008A003002044
:1019700094B04C220F496846FEF704FC0E4C6E46AC
:1019800025464435E069411CE1614178002900D1D8
:10199000E66100214278401C002A00D168460278A6
:1019A0006A54491CC9B21529F4D3642000F0AEF87A
:1019B000E8E70000582900082000002010B5FEF7D5
:1019C00071FF00F073FD012801D000F017FC10BD7D
:1019D00070B594B01A200090012003901025059056
:1019E00007900024C0040495022606950A900896E4
:1019F00009940B946846FFF7EFF8002800D0FEE743
:101A000007200C900E9400210D960F940CA8FFF760
:101A100007F8002800D0FEE70E481090C011119082
:101A2000139510A8FEF788FF002800D0FEE7FFF707
:101A30008DF87D21C900FEF78FFBFFF757FB0420CF
:101A4000FFF748FB03210022081FFEF771FF14B0C7
:101A500070BD0000200001001348016801221143FD
:101A600001604168114A114041600168104A11400B
:101A700001600168012292049143016041683F22A4
:101A8000120491434160C16A09090901C162016BF5
:101A9000FF22143291430163416B490849004163BD
:101AA0000021816070470000001002400CB8FF0860
:101AB000FFFFF6FEFEE702E008C8121F08C1002A79
:101AC000FAD170477047002001E001C1121F002ABF
:101AD000FBD17047FEF7EEFEFFF77AFFFFF7E0FD60
:101AE000FFF7ECFDFFF72AFEFFF762FDC820FEF7C7
:101AF000CBFCFFF717FDFFF7A3FD00F00FF8FEE7A3
:101B000001460020842900D0C81C704710B5002869
:101B100000D1012000F0C4FA002010BD10B500F083
:101B2000FBFA002010BD10B50846012902D000F0D4
:101B300077FB10BD03220021012000F083FB04008D
:101B400004D000231A46194600F0D1FB204610BDF0
:101B50003EB5044608200D46205EFFF7D1FF02A9DE
:101B600001910090208A2B4682B22168606800F0C3
:101B700075FC012801D000203EBD02983EBD00004A
:101B8000F8B5134C0F46E66805462068001D00F0C6
:101B9000EFF9681C07D1002F05D021680D48091DF9
:101BA00000F01EFAF8BD2068751945602168B5423D
:101BB00004D2A06B091D00F0FBF9F8BD606B091D94
:101BC00000F0F6F9A06A8542F7D2A562F8BD0000E0
:101BD000A0000020FC0A0020F8B5054600F00CFA31
:101BE000294CA068401CA0602068284F002803D022
:101BF0006069002827D02CE02560A068012828D142
:101C0000002614207043C01900F0C4F9761C042E7D
:101C1000F7D31E48503000F0BDF91C48643000F086
:101C2000B9F91A48783000F0B5F918488C3000F04E
:101C3000B1F91648A03000F0ADF914485030606397
:101C40001430A06305E02068E96AC06A884200D8C1
:101C50002560606A401C6062E86A2169884200D998
:101C6000206114214843C019291D00F0B9F900F082
:101C7000CFF96069002806D02068E96AC06A884206
:101C800001D200F001FAF8BDA00000205C0A00209B
:101C900070B5114E114C18E000F064FA306800285D
:101CA00017D000F0D7FC00F0A7F9F068C568281D30
:101CB00000F05EF9A068401EA0606068401E606091
:101CC00000F0A6F9284600F043F860680028E3D148
:101CD00070BD00F0BFFCF8E7E80A0020A00000207B
:101CE000F8B5856B174604460026026C002A11D011
:101CF000002F19D0E068FEF745FAE168206C091A58
:101D0000E1602268914202D26168081AE060022F05
:101D100017D019E02068002816D1606800F034FC64
:101D20000646002060600FE0A068FEF72BFA216CE9
:101D3000A0684018A0606168884205D32068A06050
:101D400002E0002D00D06D1E6D1CA5633046F8BD6D
:101D500010B50446006B00F069F9204600F066F902
:101D600010BD0000044CFFF793FF20680128FAD94A
:101D700000F08AF9F7E700005C0A0020FFB581B0A7
:101D80000C9C9000236B001F1818C6080A9DF600D3
:101D9000700701D072B6FEE723180A5C20331A756B
:101DA0000A5C002A02D0401C1028F5D3204640309F
:101DB00000270090C770042D00D30325E562A764B7
:101DC000201D656400F0F1F82046183000F0EDF8B1
:101DD00024610420401B6462A061E76400980774DA
:101DE0003046049A019900F0B3F820600B9800285F
:101DF00000D0046005B0F0BD0648416B09680029B9
:101E000005D0416BC968C968496881627047002183
:101E1000C943FAE7A000002003480068401C72B6DE
:101E200000D0FEE7FEE700009C000020F8B5044665
:101E300000F0E2F8254640350526AE572746243700
:101E40000BE0606A00280AD0384600F0D1FB002879
:101E500001D000F03DF9761E76B2002EF1DC0027AD
:101E6000FF436F7100F0D4F800F0C6F80426AE57B7
:101E70002046103000900BE0206900280AD000981E
:101E800000F0B6FB002801D000F022F9761E76B2F1
:101E9000002EF1DC2F7100F0BBF8F8BDF8B5044658
:101EA000002500F05FF927490B460A4648680833C9
:101EB000103200280BD124480027C008C00081C37D
:101EC000224E1760566044C00120083B48601F48FE
:101ED000401E002C32D00834660704D06607760F07
:101EE0000827BE1B3419661E864227D2154E186875
:101EF000083601E0064618464368A34202D203684A
:101F0000002BF7D1904219D03568026832604268E0
:101F10000835121B102A0DD903195A60094A44606A
:101F200008325E6800E0224614686768B742FAD358
:101F30001C60136040680A68101A086000F08AFB91
:101F40002846F8BD84000020C80300209406000045
:101F500010B50124031F24061C601B1F1960191FE4
:101F6000024B0B60143940380A6010BD191E00087E
:101F70004368826801699A60836842685A604A6867
:101F8000824201D182684A60002202610868401ED4
:101F9000086070470146083100224160D243C160A9
:101FA000826001610021016070470021016170477A
:101FB00030B50B685A1C02D00246083202E00269B2
:101FC00004E02246546825689D42FAD953684B6064
:101FD00099608A60516008610168491C016030BDE8
:101FE00042684A6093688B609368596091600861A9
:101FF0000168491C0160704772B604480168491CB9
:102000000160BFF34F8FBFF36F8F70479C000020BC
:1020100005490868002804D0401E086000D162B657
:10202000704772B6FEE700009C00002010B5002843
:1020300015D00446083C00F095F80948616800E0B6
:102040001046026853688B42FAD322600460044849
:102050006168083802688918016000F0FBFA10BD59
:102060008C00002010B506487D21C9000068FEF7ED
:1020700073F80449401E48610720086110BD000044
:102080008000002000E000E00120044900074860D3
:10209000BFF34F8FBFF36F8F7047000000ED00E07C
:1020A00010B502000FD00948006B002801D072B6AD
:1020B000FEE700F057F800211046FFF761FD00F041
:1020C000C9FA002801D1FFF7DFFF10BDA0000020F2
:1020D00001490120C8617047A000002010B50C46DE
:1020E000002809D0054909681831FFF761FF01216F
:1020F0002046FFF745FD10BD72B6FEE7A0000020A8
:10210000002805D003490A6A0260C9684160704727
:1021100072B6FEE7A00000201CB50E480024019016
:10212000234640220CA100940D4800F097F90128A5
:1021300003D0401C0CD172B6FEE772B600210548F0
:10214000C9432C38816201214161C46000F03EF82E
:102150001CBD0000CC00002049444C45000000009C
:10216000651D00080248016B491C016370470000AF
:10217000A000002010B51348016B002902D00121F6
:10218000C16110BD0021C16101690F4A02E000294F
:1021900015D0491E14234B43D358002BF7D01423DA
:1021A0004B439A18536814465B6808345360A34243
:1021B00001D15B685360DA680260016110BD72B6DC
:1021C000FEE70000A00000205C0A002010B50948CE
:1021D000016AFF22120411430162016A12021143D3
:1021E0000162FFF73FFF044900200860FDF76AFF26
:1021F000002010BD00ED00E09C00002010B5FDF7B0
:1022000075FF044600F062F9002803D0012003495D
:10221000000748602046FDF76DFF10BD00ED00E0AF
:1022200010B50C46002803D0844203D972B6FEE7ED
:1022300072B6FEE70222002100F004F8002800D068
:10224000846310BD70B50E46050014D0002E14D066
:1022500070434830FFF722FE04000AD0214648317F
:102260002046002E0BD0016006640121C56300F0FA
:1022700008F8204670BD72B6FEE70020E9E700606E
:10228000F2E770B50D46040025D0FFF7B5FE216CCE
:10229000E06B48432168411861600021A163216817
:1022A000A160E06B216C401E484321684118E16049
:1022B0000021C94320464030017141713038002D62
:1022C0000BD0FFF767FE20462430FFF763FEFFF7D1
:1022D0009FFE012070BD72B6FEE721690029F6D08D
:1022E00000F086F90028F2D0FFF7CEFEEFE7FFB549
:1022F000002683B01D46040003D00498002802D0B5
:1023000006E072B6FEE7206C002801D072B6FEE748
:10231000022D04D1E06B012801D072B6FEE700F077
:10232000C5F80027002804D10598002801D072B60E
:10233000FEE7FFF761FEA06BE16B884207D3022D39
:1023400005D00598002817D0002E18D01BE02A468B
:1023500020460499FFF7C4FC616A002903D0204697
:10236000243000F045F9002801D0FFF78DFEFFF77B
:102370004FFE012007B0F0BDFFF74AFE22E068469D
:10238000FFF7BEFE0126FFF743FEFFF7EBFEFFF768
:1023900033FE2046403004214156491C00D10771CC
:1023A00005214156491C00D14771FFF731FE05A9AF
:1023B000684600F029F8002806D02046FFF736FDD1
:1023C00000F048F90020D5E7FFF716FEA06BE16B9F
:1023D000884210D1FFF71CFE204610300599FFF708
:1023E0007DFE2046FFF722FD00F034F90028A0D141
:1023F000FFF74AFE9DE7FFF70BFE2046FFF716FDAD
:1024000000F028F995E7000070B50D4604001AD0D9
:10241000002D1AD0FFF7F0FD0F4AD1682868431C41
:102420000FD02368126A934202D062688A420ED9A2
:102430006268891A81420AD2401A28602046FFF752
:102440005FFE002404E072B6FEE772B6FEE70124E8
:10245000FFF7DEFD204670BDA0000020FFB585B06F
:10246000164690000F9FFFF719FD05001AD0542063
:10247000FFF714FD040012D0256300210E9803918C
:102480000197009002943246089B06990598FFF741
:1024900075FC2046FFF7A0FB012009B0F0BD2846DF
:1024A000FFF7C4FD0020C043F7E70000064841697C
:1024B000002904D0006B002803D0002070470120C1
:1024C0007047022070470000A0000020F8B52C4C97
:1024D0000027206B002808D0A069401CA061E0699B
:1024E000002800D001273846F8BDE668761CE66073
:1024F0000ED1606B0068002801D072B6FEE7606BF9
:10250000A16B6163A063206A401C2062FFF774FC2A
:10251000A06A86420AD3606B0068002810D0606B06
:10252000C068C568686886420DD2A0622068142120
:10253000C06A4843134908580128D0D90127CEE77B
:102540000020C043F1E7281DFFF712FDA86A00280C
:1025500003D028461830FFF70BFDE86A216988424E
:1025600000D920611421484306494018291DFFF76E
:1025700037FDE86A2168C96A8842CCD30127CAE7D7
:10258000A00000205C0A002070B50021044600284D
:1025900028D0154D2868844201D072B6FEE7A06CA1
:1025A000002808D0401EA064636CE26A9A4219D0E9
:1025B000002802D016E072B6FEE7201DFFF7D8FC17
:1025C000606C0421E062081AA061E06A296988420F
:1025D00000D928611421484304494018211DFFF700
:1025E000FFFC0121084670BDA00000205C0A00200D
:1025F00070B5C068C468002C0BD020461830064661
:10260000FFF7B6FC114D286B002804D03146104866
:102610000FE072B6FEE7201DFFF7AAFCE06A296909
:10262000884200D928611421484309497839401863
:10263000211DFFF7D5FCE06A2968C96A884202D9E2
:102640000120E86170BD002070BD0000A0000020E6
:10265000D40A0020F8B5284C0025206B2E4600280F
:1026600008D0FFF7C9FC206B401E2063206B0028B8
:1026700002D03DE072B6FEE7A168204F00291DD1CF
:1026800036E0F868C56828461830FFF771FC281D49
:10269000FFF76EFCE86A2169884200D920611421A5
:1026A0004843164978394018291DFFF799FCE86A14
:1026B0002168C96A884201D30120E0613868002896
:1026C000DFD1002D01D0FFF797FBA569002D09D0C0
:1026D0000127FFF7FBFE002800D0E7616D1EF8D14F
:1026E0000020A061E069002802D00126FFF7CCFCA1
:1026F000FFF78EFC3046F8BDA0000020D40A002071
:10270000000000000000005F000000070007001448
:102710007F147F14242A7F2A124C2C1068643649B7
:102720005522500005030000001C224100004122F8
:102730001C0014083E081408083E08080000503029
:102740000000080808000060600000201008040273
:102750007F4141417F00027F0000794949494F4153
:102760004949497F0F0808087F4F494949797F49FE
:10277000494979010101017F7F4949497F4F494911
:10278000497F00363600000056360000081422410A
:1027900000141414141400412214080201510906F3
:1027A000324979413E7E1111117E7F494949363EB9
:1027B000414141227F4141221C7F494949417F09D2
:1027C0000909013E4149497A7F0808087F00417F95
:1027D00041002040413F017F081422417F4040409A
:1027E000407F020C027F7F0408107F3E4141413E42
:1027F0007F090909063E4151215E7F091929464694
:102800004949493101017F01013F4040403F1F20BC
:1028100040201F3F4038403F63140814630708708E
:1028200008076151494543007F41410002040810F7
:10283000200041417F00040201020440404040402A
:10284000000102040020545454787F48444438382E
:1028500044444400384444487F3854545418087E53
:102860000901020C5252523E7F0804047800447D54
:1028700040002040443D007F1028440000417F403C
:10288000007C041804787C080404783844444438F4
:102890007C14141408081414187C7C0804040848D8
:1028A00054545420043F4440203C4040207C1C2091
:1028B00040201C3C4030403C44281028440C5050E0
:1028C000503C4464544C44081C361C080000FF0073
:1028D000000C3C361E18181E363C0C060909060072
:1028E000303132333435363738393041424344455C
:1028F00046000000BC29000819180008000000006C
:10290000000000004000000040290008991800085D
:10291000FEFF000000000000400000004C290008FD
:1029200071190008FEFF00000000000040000000D8
:10293000000000000000000001020304060708096F
:1029400053656E6465725F310000000053656E640C
:1029500065725F320000000020546869732069735B
:10296000207468652072756E20737472696E6720BA
:10297000776865726520796F752063616E20777264
:102980006974652065766572797468696E67207907
:102990006F752077616E7420746F2077726974652B
:1029A0003C3C3C0052520000576564005475650081
:1029B000467269004D6F6E0053756E005265636517
:1029C00069766572000000005361740054687500F8
:1029D000F029000800000020DC000000B61A000802
:1029E000CC2A0008DC000020340C0000C61A0008C5
:1029F0000000000000AED580A81FD300408D142039
:102A000000A0C0DA0281A2D9F1DB40A4A6AFFF008A
:102A10000153756E00000000920C000000000000E1
:102A200000000000000000000000000000000000A6
:102A300000000000A4290008B4290008AC290008FF
:102A4000A8290008CC290008B0290008C8290008D6
:102A5000B82900086D6178206C656E746820697310
:102A60002032302073796D62000000000000000009
:102A700000127A0094060000000000000000000030
:102A8000000000000000000000000000AAAAAAAA9E
:102A90000000000000000000000000000000000036
:102AA0000000000000000000000000000000000026
:102AB0000000000000000000000000000000000016
:0C2AC0000000000000000000000000000A
:04000005080000B13E
:00000001FF
